:020000040800F2
:10000000D02000204501000885210008A316000823
:10001000112100085D090008CF260008000000003B
:10002000000000000000000000000000F5220008B1
:100030002D140008000000004322000805240008D9
:100040005F0100085F0100085F0100085F01000810
:100050005F0100085F0100085F0100085F01000800
:100060005F0100085F0100085F0100085F010008F0
:100070005F0100085F0100085F0100085F010008E0
:100080005F0100085F0100085F0100085F010008D0
:100090005F0100085F0100085F0100085F010008C0
:1000A0005F0100085F0100085F0100085F010008B0
:1000B000692400085F0100085F0100085F01000873
:1000C0005F0100085F0100085F0100085F01000890
:1000D0005F010008B1250008F52500085F01000850
:1000E0005F0100085F0100085F0100085F01000870
:1000F0005F0100085F0100085F0100085F01000860
:100100005F0100085F0100085F0100085F0100084F
:100110005F0100085F0100085F0100085F0100083F
:100120005F0100085F0100085F0100085F0100082F
:10013000DFF80CD000F0D6FA0048004755890008D7
:10014000D02000200648804706480047FEE7FEE72B
:10015000FEE7FEE7FEE7FEE7FEE7FEE7FEE7FEE777
:10016000092400083101000840EA01039B0703D07D
:1001700009E008C9121F08C0042AFAD203E011F8E6
:10018000013B00F8013B521EF9D27047D2B201E0A8
:1001900000F8012B491EFBD270470022F6E710B58C
:1001A00013460A4604461946FFF7F0FF204610BDE5
:1001B000421E12F8013F002BFBD111F8013B02F85F
:1001C000013B002BF9D170472DE9FE4F804681EAB3
:1001D0000300C00F0C46009021F0004123F00045C1
:1001E000B8EB0200A94105D24046214690461C4684
:1001F0000B46024623F00040104304D140462146FE
:1002000003B0BDE8F08F270DC7F30A00C3F30A510E
:100210000290401A0190402866DAC3F3130040F4BC
:10022000801B0098924620B10023D2EB030A63EBB7
:100230000B0B01985946C0F14002504600F0A6F958
:1002400006460D4650465946019A00F0AEF910EBAD
:1002500008006141002487EA115284EAE7731A43D7
:100260003BD0009A3AB3019A012A4FEA075210DCB8
:10027000001B61EB02014FF0004202EA0752CDE998
:100280000042001C41F5801132462B4600F0ACF9CB
:10029000B6E7001B61EB0201001C41F5801300185A
:1002A0005B412018A2F5001747EB030140EAD57027
:1002B000B6196D4111E06D084FEA360645EAC07582
:1002C0004FEA0752001B61EB0201001C41F580114F
:1002D00049084FEA30000019514132462B4603B01D
:1002E000BDE8F04F00F073B90098012240000023F0
:1002F000D0EB020263EBE073009821464FEAE07412
:10030000B8EB000061EB0401E9E783F000435BE731
:1003100081F0004158E72DE9FE4F81EA030404F023
:10032000004421F0004100944FF0000B23F0004303
:1003300050EA010402D052EA030404D1002001462D
:1003400003B0BDE8F08FC3F30A54C1F30A552C443F
:10035000A4F2F3340194A0FB0254C1F3130141F45D
:100360008011C3F3130343F4801301FB024400FB29
:10037000034E840A970A44EA815447EA8357A4FB50
:10038000076802958D0A05FB07854FEA932C04FB4D
:100390000C542705029D4FEA065847EA1637B5EB7D
:1003A00008056EEB070C870E920E47EA811742EAAA
:1003B0008312A7FB0201B6EB0B0164EB00042B0DCB
:1003C00043EA0C335E1844EB1C50DA465146E7FB17
:1003D0000201C5F313044FEA0B3343EA14534FEA07
:1003E0000432019C43EA0603A4F10C040294009C2D
:1003F000CDE900B400F0F8F8A2E72DE9F04D81EA6C
:10040000030404F0004B21F0004514464FF0000AAD
:1004100023F0004150EA050220D054EA01021DD029
:10042000C5F30A570246C5F31303C1F31300C1F322
:100430000A5640F4801543F48013A7EB0608101BFE
:10044000D64608F2FD3873EB050002D308F1010827
:1004500001E092185B41B8F1000F03DA0020014679
:10046000BDE8F08D00204FF48011064684460EE072
:10047000171B73EB050705D3121B63EB050306433C
:100480004CEA010C49084FEA300092185B4150EAEF
:100490000107EDD152EA030012D082EA040083EA98
:1004A0000501084303D100224FF0004308E0101B70
:1004B000AB4102D20122002302E06FF0010253108F
:1004C0001AEB06004CEB085110EB0A0041EB0B0154
:1004D000BDE8F04D00F07BB800F0004230F0004085
:1004E0000AD0C10D01F56071C0F3160042EA015156
:1004F000C20840071143704700200146704730B5DD
:100500000B46014600202022012409E021FA02F5D1
:100510009D4205D303FA02F5491B04FA02F528446B
:10052000151EA2F10102F1DC30BD2DE9F05F054698
:10053000002092469B4688460646814640241BE0A2
:10054000284641464746224600F0DEF853465A46C2
:10055000C01A914110D311461846224600F016F8F1
:100560002D1A67EB01084F4622460120002100F0BA
:100570000DF817EB00094E41201EA4F10104DFDC49
:10058000484631462A464346BDE8F09F202A04DB10
:10059000203A00FA02F1002070479140C2F1200396
:1005A00020FA03F3194390407047202A06DBCB174B
:1005B000203A41FA02F043EAE07306E041FA02F31E
:1005C000D040C2F12002914008431946704710B54F
:1005D000002B08DA401C41F1000192185B411A43DC
:1005E00001D120F0010010BD2DE9F04D92469B464F
:1005F00011B1B1FA81F202E0B0FA80F220329046F5
:10060000FFF7C4FF04460F4640EA0A0041EA0B0127
:1006100053465A46084303D120463946BDE8F08D7B
:10062000114653EA010015D0C8F14002504600F0CF
:100630006BF805460E46504659464246FFF7A6FF60
:10064000084301D0012000E00020054346EAE0769F
:100650002C4337430A984FEA4453A0EB08004FEA73
:10066000D4240A304FF0000244EA47544FEAD72519
:1006700002D500200146D1E7010510196941DDE9E5
:10068000084500196941BDE8F04DA0E7C1F30A52E1
:10069000C1F3130140F2FF3341F480119A4202DAB0
:1006A00000200146704740F233439A42A2F233429F
:1006B00002DC524200F028B8FFF768BF30B50029CD
:1006C00004DB4FF00044404264EB0101002B04DBEB
:1006D0004FF00044524264EB0303994208BF90423A
:1006E00030BD0000064C074D06E0E06840F0010315
:1006F00094E8070098471034AC42F6D3FFF71CFD8E
:100700000494000824940008202A04DB203A21FAEB
:1007100002F00021704721FA02F3D040C2F120021A
:10072000914008431946704710B5482007F0C8F8B3
:1007300005F0DAFE01F044F801F0A0FE10BD000063
:1007400010B50649B1F8130001F0D8FF0121880760
:1007500001F0C6FE00200249087010BD9C01002077
:10076000D400002010B50549B1F8130001F0C6FF10
:1007700003A20021402005F0CDFE10BD9C01002009
:100780006C636473686F77322E626D7000000000D6
:1007900010B503490868804707F088FF10BD0000C6
:1007A0006400002010B586B0FFF7DCFF012233A102
:1007B000364807F0BFFB364908700846007830B16C
:1007C00034A20721032005F0A9FD00BFFEE70021A8
:1007D0002E4807F0C0FA2E4908700846007830B15C
:1007E00030A20721032005F099FD00BFFEE7002499
:1007F0002CE0304B4FF480622F49244807F04EFC28
:10080000234908700846007820B92A480068B0F5E6
:10081000806F06D029A20721032005F07FFD00BFCD
:10082000FEE74022802104A801F003FD00221146CA
:1008300002A801F0E3FC2048009002A80FC801F0D4
:1008400069FC41F2B50007F077F8641C41F6A61088
:100850008442CEDB0D4807F073FA0D490870084654
:10086000007830B119A20721032005F057FD00BF21
:10087000FEE7FFF765FF06B010BD0000626164612E
:1008800070706C652E62696E000000007C100020A4
:10089000D50000204572726F723A46696C654F75DB
:1008A000742000004572726F723A46696C65536538
:1008B00074200000D8000020D01800204572726F0C
:1008C000723A46696C655265616400004572726FE8
:1008D000723A46696C65436C6F7300003EB505461D
:1008E0001B49D1E900028968CDE901210090002D62
:1008F00000DC0025012D00DB0125164800780528C5
:1009000002DB0020134908701349124A127801EBE8
:1009100002101021FFF741FC00240DE005EB45001B
:10092000694601EB4000015D0B480A4A127800EB72
:1009300002100155601CC4B2062CEFDB054801789B
:100940000078401C034A1070034800EB01103EBDC4
:10095000D08D0008600000204C01002000BFFEE7A1
:100960002DE9F04105462F46284600F089F98046DA
:100970002021284600F09AF9461C16B93D46BDE8EC
:10098000F081002403E02819805D2855641C281993
:10099000805D0028F7D102E000202855641C444502
:1009A000FADB00BFEBE70000FEB505460E4600206F
:1009B000009001900290284600F062F90746214815
:1009C0000078052802DB00201E49087010211E480F
:1009D000FFF7E3FB32461DA1684605F001FF002446
:1009E00004E01DF8040018490855641C0A2CF8DBC3
:1009F0001548FFF7B5FF1749124A127801EB0210AC
:100A00001021FFF7CAFB002407E0285D11490D4AB9
:100A1000127801EB02110855641CBC42F5DB0D494C
:100A2000084A127801EB02100749FFF7C1FB05489D
:100A300001780078401C034A1070064800EB011052
:100A4000FEBD0000600000203C0100202531306424
:100A5000000000004C0100202DE9F04106460D4643
:100A6000304600F00DF90746284600F009F98046A7
:100A70001C480078052802DB00201A490870102164
:100A80001948FFF78AFB002403E0285D1649085542
:100A9000641C4445F9DB1549124A127801EB021037
:100AA0001021FFF77AFB002407E0305D0F490D4A63
:100AB000127801EB02110855641CBC42F5DB0B49AE
:100AC000084A127801EB02102946FFF771FB05482E
:100AD00001780078401C034A1070044800EB0110B4
:100AE000BDE8F081600000203C0100204C010020A6
:100AF0002DE9F04706460D461746304600F0C0F88F
:100B00008046284600F0BCF8814621480078052838
:100B100002DB00201E49087010211E48FFF73DFB34
:100B2000002403E0285D1B490855641C4C45F9DB93
:100B30001949174A127801EB02101021FFF72DFB1B
:100B4000002407E0305D1449114A127801EB0211CC
:100B50000855641C4445F5DB0F490D4A127801EB3A
:100B600002102946FFF724FB0B49094A127801EBD2
:100B700002103946FFF71CFB054801780078401C3D
:100B8000034A1070044800EB0110BDE8F087000034
:100B9000600000203C0100204C01002030B50446DC
:100BA0000D462946204600F0FDF908B1012030BD70
:100BB0000020FCE72DE9F04781460D4617464846E0
:100BC00000F05EF88046384600F05AF80646002DE0
:100BD00001DA002004E0454501DD404600E02846FA
:100BE000054625480078052802DB002022490870C8
:100BF0002249214A127801EB02101021FFF7CDFAA9
:100C0000002408E019F804001C491B4A127801EB83
:100C100002110855641C4445F4DB08EB0600441E31
:100C20000EE016481449097800EB0111A01B401E84
:100C3000085C1249104A127801EB02110855641E33
:100C4000A819A042EDDD002408E0385D0B490A4AEE
:100C5000127801EB02112A198854641CB442F4DBA7
:100C6000054801780078401C034A1070034800EBE7
:100C70000110BDE8F0870000600000204C0100205A
:100C800001460A4600E0491C08780028FBD1881A72
:100C9000704710B50246002004E012F8014B8C4268
:100CA00000D1401C1378002BF7D110BD30B502469F
:100CB0001446002304E015788D4200D11346521CDF
:100CC0001578002DF7D10BB96D1E00E01D1B2846CD
:100CD000002801DA4FF0FF3030BD00002DE9F0416F
:100CE00080460F4615464046FFF7CAFF0646002FCE
:100CF00001DA002004E0701EB84200DA00E0384655
:100D00000746002D01DA002004E0701EA84200DA38
:100D100000E0284605462D480078052802DB002023
:100D20002A4908702A49294A127801EB0210102139
:100D3000FFF733FA002408E018F804002449234A96
:100D4000127801EB02110855641CB442F4DBAF4287
:100D50000ADD1E4801780078401C1C4A10701C48AF
:100D600000EB0110BDE8F0813C4607E00020184987
:100D7000164A127801EB02110855641CAC42F5DDED
:100D800010211448FFF709FA6C1C0AE010480F49BB
:100D9000097800EB0110015D601B401E0D4A1154E3
:100DA000641CB442F2DB0A49084A127801EB0210D3
:100DB0000849FFF7FDF9054801780078401C034A0F
:100DC0001070034800EB0110CCE700006000002029
:100DD0004C0100203C0100202DE9F74F834691464D
:100DE00000265846FFF74CFF82460198FFF748FF60
:100DF00007464846FFF744FF80464E4800780528DE
:100E000002DB00204B4908704B494A4A127801EB3B
:100E100002101021FFF7C1F9002408E01BF80400BC
:100E20004549444A127801EB02110855641C5445A7
:100E3000F4DB58460199FFF7B1FE50B93D480178FF
:100E40000078401C3B4A10703B4800EB0110BDE8A5
:100E5000FE8F5AE0761C3849364A127801EB0210B0
:100E6000019900F0B8F80546002408E00020324956
:100E7000304A127801EB021162198854641CBC429A
:100E8000F4DB10212D48FFF788F9EC190AE02A4815
:100E90002849097800EB0110005D611BC91B274A36
:100EA0005054641C0AEB0600A042F0DC2249214A9F
:100EB000127801EB02102149FFF77AF907FB16A01F
:100EC00006FB0800441E0EE01B481A49097800EB97
:100ED0000110A4EB0801415C1748164A127800EB98
:100EE00002100155641E05EB0800A042ECDD002451
:100EF00009E019F8040010490E4A127801EB0211BA
:100F00002A198854641C4445F3DB0B49094A1278BA
:100F100001EB0210019900F05EF8401C9AD10548DF
:100F200001780078401C034A1070034800EB011060
:100F30008DE70000600000204C0100203C010020F3
:100F400070B506463046FFF79BFE0546134800780D
:100F5000052802DB00201149087011490F4A127858
:100F600001EB02102946FFF718F9002409E0281BBD
:100F7000401E305C0A49094A127801EB02110855FB
:100F8000641CAC42F3DB054801780078401C034A3E
:100F90001070034800EB011070BD000060000020DD
:100FA0004C01002070B502460B4600210EE00D46B4
:100FB000002406E0601C185C08B9501870BD6D1C58
:100FC000641C505D1E5DB042F4D0491C505C00288A
:100FD000EDD100BFF2E770B502460B4600210EE0EE
:100FE0000D46002406E0601C185C08B9084670BD78
:100FF0006D1C641C505D1E5DB042F4D0491C505CF9
:101000000028EDD1401EF2E72DE9F04706460B46D9
:101010003046FFF735FE80461846FFF731FE814621
:101020004FF0FF3A00240FE02746002506E0681C39
:10103000185C08B9A24605E07F1C6D1CF05D595D87
:101040008842F4D000BF641CA8EB0900A042EBDA90
:101050005046BDE8F087000070B505462846FFF70A
:101060000FFE064620480078052802DB00201E49B6
:1010700008701E491C4A127801EB02101021FFF77C
:101080008CF8002424E0285D1849174A127801EBF7
:101090000211085515481449097800EB0110005D4C
:1010A000412814DB11481049097800EB0110005D5C
:1010B0005A280CDC0D480C49097800EB0110005D42
:1010C00020300A49084A127801EB02110855641CC5
:1010D000B442D8DB044801780078401C024A107002
:1010E000024800EB011070BD600000204C010020A0
:1010F00070B505462846FFF7C3FD06462048007830
:10110000052802DB00201E4908701E491C4A12787F
:1011100001EB02101021FFF740F8002424E0285DC5
:101120001849174A127801EB02110855154814495D
:10113000097800EB0110005D612814DB11481049AB
:10114000097800EB0110005D7A280CDC0D480C4991
:10115000097800EB0110005D20380A49084A12782E
:1011600001EB02110855641CB442D8DB0448017835
:101170000078401C024A1070024800EB011070BD5C
:10118000600000204C0100203CB5CC10E40295101A
:1011900044EA451444EAE304ADF805408DF8001034
:1011A0008DF802208DF80130EB244C4340F2652588
:1011B00005FB024540F2712404FB0354641C240A1D
:1011C0008DF80440009C0460BDF8044084809DF8C4
:1011D000064084713CBD0CB5CA10D2028B1042EAA5
:1011E000431242EAE102ADF80520BDF80520D20A1B
:1011F0008DF80020BDF80520C2F345128DF80220BD
:101200009DF8052002F01F028DF80120009A02606F
:10121000BDF8042082809DF8062082710CBD1CB5AB
:10122000ADF80510CA0A8DF80020C1F345128DF8FB
:10123000022001F01F028DF801209DF80020EB2311
:101240005A439DF8023040F2652403FB04239DF8C5
:10125000012040F2712402FB0432521C120A8DF864
:101260000420009A0260BDF8042082809DF80620C8
:1012700082711CBD2DE9F04105460C46C4F30746BA
:10128000C4F3072704F0FF0843463A463146284690
:10129000FFF77AFFBDE8F0810CB55D485D49486510
:1012A0005D4888655D48C8655D4808664FF47841CB
:1012B0006846FFF7B4FF574800990160BDF8041075
:1012C00081809DF8061081714FF4FC616846FFF73C
:1012D000A6FF5048C01D00990160BDF80410818030
:1012E0009DF8061081711F216846FFF798FF494855
:1012F0000099C0F80E10BDF8041041829DF8061048
:1013000001754FF61F016846FFF789FF4148153008
:1013100000990160BDF8041081809DF8061081716C
:101320004FF6E0716846FFF77AFF3A480099C161CD
:10133000BDF8041001849DF8061080F8221040F2D8
:10134000FF716846FFF76BFF324823300099016058
:10135000BDF8041081809DF8061081710021684657
:10136000FFF75DFF2B482A3000990160BDF804109B
:1013700081809DF8061081714FF6FF716846FFF776
:101380004EFF2448313000990160BDF8041081807F
:101390009DF8061081714FF6E0716846FFF73FFF38
:1013A0001C4800998163BDF8041081879DF80610E0
:1013B00080F83E10CC23332219466846FFF7E4FE3E
:1013C00014483F3000990160BDF8041081809DF8F9
:1013D0000610817113496846FFF74CFF0D484630EF
:1013E00000990160BDF8041081809DF8061081719C
:1013F0000D496846FFF73EFF06484D3000990160F1
:10140000BDF8041081809DF8061081710CBD0000AC
:10141000891100089C010020751200081F120008A5
:10142000D7110008FFF59800808080007047000009
:101430002DE9FC4105460020009001901B480078F2
:10144000052802DB0020194908701949174A12784B
:1014500001EB02101021FEF7A0FE2846FFF73CF832
:10146000064632460B4613A1684605F0B9F900243A
:1014700008E01DF804000E490C4A127801EB021135
:101480000855641C082CF4DB0949084A127801EB62
:101490000210FFF765FA054801780078401C034AFE
:1014A0001070034800EB0110BDE8FC8160000020D3
:1014B0004C01002025382E32660000002DE9F04155
:1014C000024600250026002000230024002791F872
:1014D00003C00CF00F0591F803C01CF0100F03D0EF
:1014E00091F802C04CEA050591F800C0BCF1000F6C
:1014F00031D0146800202BE04FF0010C0CFA00F3FF
:10150000B1F800C00CEA03069E4220D183004FF0E0
:101510000F0C0CFA03F7BC4305FA03FC4CEA040475
:1015200091F803C0BCF1280F06D14FF0010C0CFA62
:1015300000FCC2F814C00AE091F803C0BCF1480FE7
:1015400005D14FF0010C0CFA00FCC2F810C0401C91
:101550000828D1D31460B1F800C0BCF1FF0F34DD0E
:10156000546800202EE000F1080C4FF0010808FA42
:101570000CF3B1F800C00CEA03069E4221D18300AF
:101580004FF00F0C0CFA03F7BC4305FA03FC4CEACE
:10159000040491F803C0BCF1280F05D100F1080C38
:1015A00008FA0CF8C2F8148091F803C0BCF1480F97
:1015B00007D100F1080C4FF0010808FA0CF8C2F846
:1015C0001080401C0828CED35460BDE8F08102464C
:1015D000002093680B4201D0012000E000207047FA
:1015E00041617047016170472DE9F04105460C46A5
:1015F00026786778A6F1B000C0EB001101EB40102F
:1016000007EB4000A1384FEA401801220FA1124811
:1016100006F090FC114908700846007830B110A21D
:101620000721032004F034FF00BFFEE741460A48CB
:1016300006F091FB0E4B20222946074806F02EFDAE
:10164000054806F07DFB0120BDE8F081687A6C69F1
:10165000622E62696E00000000020020A0000020DF
:101660004572726F723A46696C654F75742000005E
:10167000A40000200CB50549096B00910349496B92
:101680000191DDE90012C0E900120CBD64000020E8
:101690000CB5002100910191DDE90012C0E90012B2
:1016A0000CBD00BFFEE7000010B586B00446142252
:1016B0001CA101A8FEF758FD1F480078052802DB91
:1016C00000201D4908701D491B4A127801EB0210C9
:1016D0001021FEF762FD04F00F0001A9085C174914
:1016E000154A127801EB0211487001A800EB1410A2
:1016F00000781249104A127801EB021108700F4964
:101700000D4A127801EB0210FFF72AF90A48017816
:101710000078401C084A1070084800EB011006B021
:1017200010BD00003031323334353637383941425C
:101730004344454600000000600000204C010020AA
:101740003EB50546002000900190029018480078B0
:10175000052802DB0020164908701649144A127841
:1017600001EB02101021FEF718FD2A4612A168466F
:1017700005F036F8002408E01DF804000D490C4A75
:10178000127801EB02110855641C0A2CF4DB09499C
:10179000074A127801EB0210FFF7E2F804480178DB
:1017A0000078401C024A1070024800EB01103EBD58
:1017B000600000204C010020253130640000000052
:1017C00008B50121102000F04DFD4FF40050ADF898
:1017D000000003208DF8020010208DF803006946F8
:1017E0000348FFF76BFE00200249086008BD0000B7
:1017F00000100140B4012242F0B589B00446FF2236
:101800000021092005F0A4FCC6B216B1304609B08B
:10181000F0BD0122102105A805F058FC08B10120F7
:10182000F5E7FF2200210A2005F092FCC6B20EB1B6
:101830003046ECE70122102101A805F047FC08B171
:101840000220E4E79DF81400800920709DF8140040
:10185000C0F3830060709DF8140000F00300A070D6
:101860009DF81500E0709DF8160020719DF8170096
:1018700060719DF818000001E080E0889DF8191063
:1018800040EA1110E0809DF8190000F00F0020726E
:101890009DF81A00C00960729DF81A00C0F380100C
:1018A000A0729DF81A00C0F34010E0729DF81A0073
:1018B000C0F300102073002060739DF81A008007A9
:1018C000000D206120699DF81B1040EA8100206115
:1018D00020699DF81C1040EA911020619DF81C00C1
:1018E000C0F3C20020759DF81C0000F00700607571
:1018F0009DF81D004009A0759DF81D00C0F38200F1
:10190000E0759DF81D008007400F2076207E9DF831
:101910001E1040EAD11020769DF81E00C0F384000E
:1019200060769DF81E008007C00EA076A07E9DF810
:101930001F1040EA5110A0769DF81F0000F01F0014
:10194000E0769DF82000C00920779DF82000C0F3C4
:10195000411060779DF82000C0F38200A0779DF8C9
:1019600020008007000FE077E07F9DF8211040EA1B
:101970009110E0779DF82100C0F3401084F820001A
:10198000002084F821009DF8210000F0010084F877
:1019900022009DF82200C00984F823009DF822004F
:1019A000C0F3801084F824009DF82200C0F340109A
:1019B00084F825009DF82200C0F3001084F826006A
:1019C0009DF82200C0F3810084F827009DF82200D2
:1019D00000F0030084F828009DF82300400884F8F4
:1019E0002900012084F82A0094F84E00042808D128
:1019F0009DF81C000002206120699DF81D1008441C
:101A000020612069C00460644FF40070A0649DF8F8
:101A1000040084F82C009DF805000102E185E08DAA
:101A20009DF806100843E0859DF807000106216334
:101A3000206B9DF8081040EA01412163206B9DF85E
:101A4000091040EA01212163206B9DF80A10084328
:101A500020639DF80B10342001559DF80C103520A3
:101A600001559DF80D000106A163A06B9DF80E10B5
:101A700040EA0141A163A06B9DF80F1040EA0121EB
:101A8000A163A06B9DF810100843A0633C20005D8B
:101A90009DF8111040EA11113C2001559DF81100EC
:101AA0000007010DE187E08F9DF812100843E087E1
:101AB0009DF81300410840200155012141200155A6
:101AC0009DF8140000F0C00040280BD19DF81D00C7
:101AD0009DF81C1000EB0120401C85B2A80216499D
:101AE000086026E09DF8190000F00F009DF81E1018
:101AF00000EBD1109DF81D1001F0030100EB410037
:101B0000871C9DF81C0080119DF81B1000EB8100C4
:101B10009DF81A1001F0030100EB8120451CA7F18C
:101B2000090005FA00F00449086008460068C00A88
:101B3000086000206BE60000140000207CB5002047
:101B400000900190002401E0601C84B2FF2CFBDDBA
:101B5000002404E0FF2005F073FB601C84B20A2C13
:101B6000F8DB00240BE095220021084605F0F0FA8E
:101B7000C5B2012D01D1002405E0601C84B240F6FD
:101B8000FF708442EFDB00BFA4F57060FF3801D125
:101B900001207CBD87224FF4D571082005F018FB89
:101BA000C5B2052D5DD10120724981F84E0010218A
:101BB0007148FFF717FDFF2005F042FB002414E0F9
:101BC00000221146372005F0C3FAC5B2012D01D01D
:101BD0002846DEE700221146292005F0B9FAC5B2F1
:101BE0000DB9002405E0601C84B240F6FF70844209
:101BF000E6DB00BFA4F57060FF381BD100240AE0CB
:101C000000221146012005F0A3FAC5B20DB9002447
:101C100005E0601C84B240F6FF708442F0DB00BF38
:101C2000A4F57060FF3801D10220B2E700205149CD
:101C300081F84E00012000F005F9012200213B202F
:101C400005F086FAC5B20DB12846A2E7FF224FF48F
:101C50000071102005F07CFAC5B2002D7DD0284619
:101C600097E7012D79D1FF2005F0EAFAC0B28DF88F
:101C70000000FF2005F0E4FAC0B28DF80100FF205B
:101C800005F0DEFAC0B28DF80200FF2005F0D8FAA8
:101C9000C0B28DF8030010213748FFF7A3FCFF20E6
:101CA00005F0CEFA9DF80200012861D19DF80300ED
:101CB000AA285DD1002415E000221146372005F046
:101CC00047FAC5B2012D01D0284662E700224FF045
:101CD0008041292005F03CFAC5B20DB9002405E089
:101CE000601C84B240F6FF708442E5DB00BFA4F5BF
:101CF0007060FF3801D103204BE7002211463A20E3
:101D000005F066FAC5B20DB1284642E7FF2005F09E
:101D100097FAC0B28DF80000FF2005F091FAC0B22A
:101D20008DF80100FF2005F08BFAC0B28DF802009B
:101D3000FF2005F085FAC0B28DF8030010210E488F
:101D4000FFF750FCFF2005F07BFA9DF8000010F033
:101D5000400F06D00420074900E009E081F84E005A
:101D600003E00220034981F84E00012000F06AF8E8
:101D700000200EE7E4000020000801402DE9F041BA
:101D800005460E4617461C4890F84E00042800D021
:101D90006D0200222946122005F0DAF900F0FF0852
:101DA000B8F1000F02D00120BDE8F081002413E05B
:101DB00006EB442000224FF4007105F087F950B182
:101DC000002211460C2005F0C3F910210B48FFF743
:101DD00009FC0220E8E7641CBC42E9D3002211465A
:101DE0000C2005F0B5F910210448FFF7FBFBFF209C
:101DF00005F026FA0020D7E7E400002000080140A3
:101E000070B504460E460E4890F84E00042800D0E7
:101E1000640200222146112005F09AF9C5B20DB1E5
:101E2000012070BD01225102304605F04FF9C5B2C4
:101E3000002211460C2005F08BF92846F1E700003E
:101E4000E400002010B586B004460020ADF8040080
:101E50004FF48270ADF806000020ADF808000220B3
:101E6000ADF80A000120ADF80C004002ADF80E00FC
:101E70000020ADF812000720ADF814001CB938207E
:101E8000ADF8100002E02020ADF8100001A90248D2
:101E900000F012FA06B010BD0030014008B5012173
:101EA000080300F0DFF901210D2000F0DBF9E0204C
:101EB000ADF8000003208DF8020018208DF8030013
:101EC00069461448FFF7FAFA1020ADF80000032025
:101ED0008DF8020010208DF8030069460D48FFF7C9
:101EE000EDFA0120ADF8000003208DF80200482033
:101EF0008DF8030069460848FFF7E0FA102105480D
:101F0000FFF770FB0020FFF79DFF0121034800F061
:101F1000B9F908BD00080140000C01400030014043
:101F20002DE9F04705460E461746454890F84E0005
:101F3000042800D06D02424890F84E0020B10022E3
:101F40003946172005F004F900222946192005F02A
:101F5000FFF8C4B214B10120BDE8F0871021394860
:101F6000FFF73EFBFF2005F06BF9FF2005F068F955
:101F7000FF2005F065F94FF000083AE0FC2005F07D
:101F80005FF94FF0000907E016F8010B05F058F96A
:101F900009F101001FFA80F9B9F5007FF4DBFF2099
:101FA00005F04EF9FF2005F04BF9FF2005F048F948
:101FB000C4B204F01F00052805D010212148FFF706
:101FC00011FB0220C8E74FF0000A0BE050460AF16F
:101FD000010AB0F5802F05D110211A48FFF702FB46
:101FE0000320B9E7FF2005F02BF9FF28EED108F117
:101FF0000108B845C2D3FD2005F022F9C4B20CB9DE
:102000000420A9E74FF0000A0BE050460AF1010A4C
:10201000B0F5802F05D110210A48FFF7E3FA05201B
:102020009AE7FF2005F00CF9FF28EED110210548B2
:10203000FFF7D8FAFF2005F003F900208CE7000035
:10204000E4000020000801402DE9F04104460D465F
:102050002D4890F84E00042800D06402002221464A
:10206000182005F075F8C6B216B10120BDE8F08160
:1020700010212648FFF7B4FAFF2005F0E1F8FF2011
:1020800005F0DEF8FF2005F0DBF8FE2005F0D8F8BB
:10209000002705E015F8010B05F0D2F8781C87B28F
:1020A000B7F5007FF6DBFF2005F0CAF8FF2005F04A
:1020B000C7F8FF2005F0C4F8C6B206F01F000528D7
:1020C00005D010211148FFF78DFA0220CEE74FF01E
:1020D00000080BE0404608F10108B0F5802F05D15B
:1020E00010210A48FFF77EFA0320BFE7FF2005F022
:1020F000A7F80028EED010210448FFF773FAFF205C
:1021000005F09EF80020B1E7E4000020000801403F
:1021100000BFFEE730B585B0089D8022082103A8E6
:1021200000F087F807240EE0E100002201A800F08B
:1021300065F8C4F1070005EBC010009001A80FC8B6
:1021400000F0EEFA641E002CEEDA05B030BD00009F
:102150000A480078401CC0B20849087014280BDDFA
:102160000748006808B9012000E000200449086021
:102170004FF000000149087070470000090000207E
:10218000B40122427047000070B5002100230F22E5
:10219000C4780CB3164C246804F4E064C4F5E0641D
:1021A000210AC1F10403CA40447804FA03F1847897
:1021B0001440214309010F4C0678A155047804F01E
:1021C0001F050124AC4005786D114FF0E02606EBA9
:1021D0008505C5F8004109E0047804F01F050124D5
:1021E000AC40054D0678761145F8264070BD0000DC
:1021F0000CED00E000E400E080E100E01CB500919F
:102200000192DDE90034C0E900341CBD0FB40CB507
:10221000069A04991144491E0091079A05991144A0
:10222000491E0191DDE90012C0E9001202B05DF81B
:1022300014FB1CB500910192DDE90034C0E90034C3
:102240001CBD704729B1064AD2690243044BDA61CA
:1022500004E0034AD2698243014BDA61704700000F
:102260000010024029B1064A92690243044B9A6168
:1022700004E0034A92698243014B9A61704700006F
:102280000010024021B1028842F04002028004E0C6
:1022900002884FF6BF731A40028070470246002042
:1022A00013890B4201D0012000E000207047014655
:1022B000888970478181704710B50022028802F436
:1022C00041520B884C8823438C882343CC8823437A
:1022D0000C8923434C8923438C892343CC89234392
:1022E0001A430280838B4FF2FF74234083830B8A4F
:1022F000038210BD704710B500F002F810BD000059
:102300000CB50020019000903248006840F4803005
:102310003049086000BF2F48006800F4003000908A
:102320000198401C0190009818B90198B0F5A06F71
:10233000F1D12848006810F4003F02D0012000903D
:1023400001E0002000900098012842D12248006856
:1023500040F01000204908600846006820F00300A3
:1023600008600846006840F00200086019484068AC
:10237000184948600846406848600846406840F48C
:10238000806048600846406820F47C104860084639
:10239000406840F4E81048600846006840F08070EB
:1023A000086000BF0B48006810F0007FFAD00948B1
:1023B000406820F00300074948600846406840F044
:1023C0000200486000BF0348406800F00C00082885
:1023D000F9D10CBD0010024000200240042808D1B1
:1023E0004FF0E021096941F004014FF0E022116152
:1023F00007E04FF0E021096921F004014FF0E022ED
:10240000116170477047000010B51348006840F034
:1024100001001149086008464068104908400E490B
:102420004860084600680E4908400B4908600846A5
:10243000006820F4802008600846406820F4FE0010
:1024400048604FF41F008860FFF755FF4FF00060B1
:102450000449086010BD0000001002400000FFF8B1
:10246000FFFFF6FE08ED00E010B50121880700F03F
:1024700034F800F02FF9FFF76BFE10BD1FB50121F6
:102480000846FFF7DFFE44F61F60ADF80800232082
:10249000ADF804000020ADF80A00ADF8060001A96F
:1024A0004FF0804000F032F801221146900700F012
:1024B00023F81C208DF8000001208DF80100022077
:1024C0008DF8020001208DF803006846FFF75CFEDE
:1024D0000121880700F004F81FBDCA43028270473B
:1024E00021B1028842F00102028004E002884FF626
:1024F000FE731A40028070471AB183890B438381AF
:1025000002E083898B4383817047000000220288A8
:102510001D4B98420ED01D4B98420BD0B0F1804F0E
:1025200008D01B4B984205D01A4B984202D01A4B48
:10253000984204D14FF68F731A404B881A43174BB9
:10254000984207D0164B984204D04FF6FF431A40EA
:10255000CB881A4302808B8883850B8803850A4BBE
:1025600098420BD0094B984208D00E4B984205D0A8
:102570000D4B984202D00D4B984201D10B7A038645
:102580000123838270470000002C01400034014089
:102590000004004000080040000C00400010004013
:1025A0000014004000400140004401400048014048
:1025B00010B540F225510D4800F05AF808210B489B
:1025C00000F049F840B1094800F07CF8084908706B
:1025D0000821064800F036F80421044800F03BF8D2
:1025E00018B10421014800F02DF810BD0038014059
:1025F0000800002010B540F22551104800F038F8CE
:1026000020B10E4800F05EF80D49087008210B4813
:1026100000F021F840B1094800F054F8084908706A
:102620000821064800F00EF80421044800F013F8D1
:1026300018B10421014800F005F810BD0044004025
:102640000800002001F40072B2F5007F00D100BF45
:10265000CA430280704702460020B1F5007F00D1D6
:1026600000BF13880B4201D0012000E0002070471A
:1026700070B502460024002300250020A1F5106655
:102680006A3E00D100BFC1F3421501F01F030126CD
:1026900006FA03F3012D02D19689334006E0022D9C
:1026A00002D1168A334001E0968A33400C1201268B
:1026B00006FA04F41688344013B10CB1012000E08E
:1026C000002070BD01468888C0F30800704700BF35
:1026D000FEE7000010B54FF400510648FEF777FF03
:1026E00030B901200449087000218007FFF7F8FE87
:1026F00010BD0000000C0140D400002010B585B0D2
:10270000044600200390049001A800F0BDFF00944F
:10271000DDE90123DDE9030100F0DAFE05B010BDBB
:102720002DE9FF410A9FDDE9022101FB02F0C117FB
:1027300000EB51714FEAE1083E469DE80F0001F0C1
:1027400015F800BF01206B4908604FF000006A498E
:10275000C1F89801C1F8A801684800684FF2F0017B
:1027600000EA0100654908600846006840F00C0076
:1027700008600846006840F4007008604FF00000F0
:102780005F4908604FF0010008605B49C1F8A8018B
:1027900000BFA7E016F8014B08259DE00120A840E6
:1027A000204248D000BF00BF012052490860524972
:1027B000C1F898014FF00000C1F8A8014F48006827
:1027C0004FF2F00100EA01004C4908600846006839
:1027D00008600846006808604FF00000484908603B
:1027E0004FF0010008604449C1F8A80100BF00BFD4
:1027F000404908604049C1F898014FF00000C1F815
:10280000A8013E4800684FF2F00100EA01003B4990
:1028100008600846006808600846006808604FF0D5
:102820000000374908604FF0010008603249C1F8E4
:10283000A80100BF50E000BF00BF01202D49086083
:102840002D49C1F898014FF00000C1F8A8012B48AC
:1028500000684FF2F00100EA0100284908600846CC
:10286000006840F00F0008600846006840F470609F
:1028700008604FF00000224908604FF00100086036
:102880001D49C1F8A80100BF00BF1A4908601A49D4
:10289000C1F898014FF00000C1F8A801174800687E
:1028A0004FF2F00100EA0100144908600846006890
:1028B00040F00F0008600846006840F4706008604F
:1028C0004FF000000E4908604FF0010008600A490F
:1028D000C1F8A80100BF00BF2800A5F10101CDB2D9
:1028E0007FF45CAF5FEA0800A8F101087FF452AF03
:1028F000BDE8FF81A4812142008021420C080140F3
:10290000A08121422DE9FF478AB014461E46169F3A
:10291000AF4903C9CDE908014FF0000A51E1AD48C4
:102920000A99006B0838814204DD00200A900B9858
:1029300010300B90A7480B99406B1038814202DD94
:1029400000200B900A9020787F287DDD4FF0000852
:10295000A0480A99006B0838814205DC9D480B9914
:10296000406B1038814202DD0EB0BDE8F087214691
:102970006846FEF739FEDDE90823DDE90A0100F0CB
:10298000F5FE00BF0120944908604FF00000934914
:10299000C1F89801C1F8A801914800684FF2F00110
:1029A00000EA01008E4908600846006840F00C000B
:1029B00008600846006840F4007008604FF00000AE
:1029C000884908604FF0010008608449C1F8A801F7
:1029D00000BF4FF00005DFE01DF815804FF6FF70D7
:1029E00000EA08286800401C1DF8000040EA0808BA
:1029F0004FF00009CAE018F4004F60D000BF00BFDC
:102A00000120754908607549C1F898014FF0000030
:102A1000C1F8A801724800684FF2F00100EA010015
:102A20006F49086008460068C6F3032140EA0100C8
:102A30006B490860084600684FF0F00101EA262162
:102A400040EA0110664900E0B0E008604FF0000085
:102A5000644908604FF0010008606049C1F8A801AE
:102A600000BF00BF5C4908605C49C1F898014FF0A5
:102A70000000C1F8A8015A4800684FF2F00100EACE
:102A80000100574908600846006806F00F0140EA57
:102A90000100534908600846006806F0F00140EA6A
:102AA00001104F4908604FF000004E4908604FF098
:102AB000010008604949C1F8A80100BF5EE000BFFD
:102AC00000BF0120444908604449C1F898014FF013
:102AD0000000C1F8A801424800684FF2F00100EA86
:102AE00001003F49086008460068C7F3032140EA37
:102AF00001003B490860084600684FF0F00101EA18
:102B0000272140EA0110364908604FF0000035499E
:102B100008604FF0010008603049C1F8A80100BF0B
:102B200000BF2D4908602D49C1F898014FF0000001
:102B3000C1F8A8012A4800684FF2F00100EA01003C
:102B4000274908600846006807F00F0140EA0100C5
:102B5000234908600846006807F0F00140EA0110C8
:102B60001F4908604FF000001E4908604FF0010047
:102B700008601A49C1F8A80100BF00BF4FF6FF70F6
:102B800000EA480809F1010000F0FF09B9F1100F4F
:102B9000FFF631AF681CC5B2102DFFF61DAF0AF16C
:102BA000010A0A9808300A90641C06E0009722780F
:102BB0003346DDE90A0103F07BFA0A9808300A90EF
:102BC000641C207800287FF4AAAE00BFCCE6000089
:102BD000F493000864000020A48121420080214277
:102BE0000C080140A08121420FB42DE9F0430646B4
:102BF0000F469046002445460320A0EB480948E0D4
:102C0000BDF82D20391B701B00F0C2FBBDF82D2034
:102C1000391B701900F0BCFBBDF82D207919301B51
:102C200000F0B6FBBDF82D20391B701B00F0B0FB87
:102C3000BDF82D20791B301B00F0AAFBBDF82D201C
:102C40003919701900F0A4FBBDF82D20791B30193B
:102C500000F09EFBBDF82D207919301900F098FB8B
:102C6000BDF82D203919701B00F092FB641CB9F1DE
:102C7000000F03DAA000801D814404E0601B800087
:102C80000A3081446D1EBDF82D207919301900F0ED
:102C90007FFBAC42B4DDBDE8F0035DF814FB00003F
:102CA0000FB47FB514460D9E002536B1012E1DD000
:102CB000022E34D0032E64D14AE008982044401EEE
:102CC0007D4A126B904202DD7B48006B02E008985F
:102CD0002044401E01B2012202A8FFF7AAFADDE952
:102CE0000223DDE9080100F041FD4DE00998204490
:102CF000401E7149496B884202DD6F48406B02E01B
:102D000009982044401E02B2012102A8FFF791FA5F
:102D1000DDE90223DDE9080100F028FD34E00122AD
:102D2000214602A8FFF785FADDE90802A0EB0400BE
:102D3000401C01D5002002E00898001B401C01B295
:102D40006846FFF75BFA9DE80F0000F00FFD1BE0FF
:102D50002246012102A8FFF76CFA0998A0EB0400B3
:102D6000401C01D5002002E00998001B401C02B263
:102D700068460899FFF742FA9DE80F0000F0F6FC5C
:102D800002E07FBC5DF814FB00BF00BF01204B498F
:102D900008604FF000004A49C1F89801C1F8A80145
:102DA000484800684FF2F00100EA01004549086018
:102DB0000846006840F00C0008600846006840F4CF
:102DC000007008604FF000003F4908604FF00100BC
:102DD00008603B49C1F8A80100BF69E000BF00BF1F
:102DE0000120364908603649C1F898014FF00000CB
:102DF000C1F8A801334800684FF2F00100EA010071
:102E00003049086008460068BDF83110C1F303215D
:102E100040EA01002B49086008460068BDF83110FF
:102E20004FF0F00202EA212140EA01102549086032
:102E30004FF00000244908604FF00100086020496D
:102E4000C1F8A80100BF00BF1C4908601C49C1F8B7
:102E500098014FF00000C1F8A8011A4800684FF22D
:102E6000F00100EA010017490860084600689DF873
:102E7000311001F00F0140EA0100124908600846D4
:102E800000689DF8311001F0F00140EA01100D4991
:102E900008604FF000000C4908604FF00100086026
:102EA0000749C1F8A80100BF00BF05F10100C5B284
:102EB000A54293DB00BF64E764000020A4812142A7
:102EC000008021420C080140A08121422DE9FF47EA
:102ED0008AB014461E46169FAF4903C9CDE90801C2
:102EE0004FF0000A51E1AD480A99006B0838814261
:102EF00004DD00200A900B9810300B90A7480B9926
:102F0000406B1038814202DD00200B900A9020783F
:102F10007F287DDD4FF00008A0480A99006B083833
:102F2000814205DC9D480B99406B1038814202DDDF
:102F30000EB0BDE8F08721466846FEF755FBDDE997
:102F40000823DDE90A0100F011FC00BF01209449CB
:102F500008604FF000009349C1F89801C1F8A8013A
:102F6000914800684FF2F00100EA01008E490860C4
:102F70000846006840F00C0008600846006840F40D
:102F8000007008604FF00000884908604FF00100B1
:102F900008608449C1F8A80100BF4FF00005DFE0D8
:102FA0001DF815804FF6FF7000EA08286800401CE5
:102FB0001DF8000040EA08084FF00009CAE018F4C4
:102FC000004F60D000BF00BF0120754908607549FF
:102FD000C1F898014FF00000C1F8A80172480068DC
:102FE0004FF2F00100EA01006F49086008460068EE
:102FF000C6F3032140EA01006B49086008460068F7
:103000004FF0F00101EA262140EA0110664900E094
:10301000B0E008604FF00000644908604FF0010024
:1030200008606049C1F8A80100BF00BF5C490860A2
:103030005C49C1F898014FF00000C1F8A8015A4856
:1030400000684FF2F00100EA0100574908600846A5
:10305000006806F00F0140EA010053490860084685
:10306000006806F0F00140EA01104F4908604FF097
:1030700000004E4908604FF0010008604949C1F85E
:10308000A80100BF5EE000BF00BF01204449086006
:103090004449C1F898014FF00000C1F8A801424826
:1030A00000684FF2F00100EA01003F49086008465D
:1030B0000068C7F3032140EA01003B490860084665
:1030C00000684FF0F00101EA272140EA011036497B
:1030D00008604FF00000354908604FF001000860BB
:1030E0003049C1F8A80100BF00BF2D4908602D4933
:1030F000C1F898014FF00000C1F8A8012A48006803
:103100004FF2F00100EA0100274908600846006814
:1031100007F00F0140EA01002349086008460068F3
:1031200007F0F00140EA01101F4908604FF000006D
:103130001E4908604FF0010008601A49C1F8A80153
:1031400000BF00BF4FF6FF7000EA480809F1010018
:1031500000F0FF09B9F1100FFFF631AF681CC5B2DE
:10316000102DFFF61DAF0AF1010A0A9808300A90E7
:10317000641C06E0009722783346DDE90A0102F07C
:1031800097FF0A9808300A90641C207800287FF482
:10319000AAAE00BFCCE60000FC930008640000204B
:1031A000A4812142008021420C080140A0812142DB
:1031B0000FB584B00798009004A90EC902A8FFF7C4
:1031C00025F800200190BDF82800ADF800009DF81A
:1031D0002A008DF802000698C2B2099BDDE90401BD
:1031E000FFF75EFD01200190BDF82800ADF800005A
:1031F0009DF82A008DF802000798C2B2099BDDE90C
:103200000401FFF74DFD02200190BDF82800ADF844
:1032100000009DF82A008DF802000698C2B2099BB2
:10322000DDE90201FFF73CFD03200190BDF8280015
:10323000ADF800009DF82A008DF802000798C2B290
:10324000099BDDE90201FFF72BFD08B000BD00007E
:1032500017B582B01446494903C9CDE90001DDE93B
:103260000023DDE9020100F081FA00BF012044499A
:1032700008604FF000004349C1F89801C1F8A80167
:10328000414800684FF2F00100EA01003E49086041
:103290000846006840F00C0008600846006840F4EA
:1032A000007008604FF00000384908604FF00100DE
:1032B00008603449C1F8A80100BF00BF00BF304911
:1032C00008603049C1F898014FF00000C1F8A8012A
:1032D0002D4800684FF2F00100EA01002A49086019
:1032E00008460068C4F3032140EA0100264908604B
:1032F000084600684FF0F00101EA242140EA01107D
:10330000214908604FF00000204908604FF001009B
:1033100008601C49C1F8A80100BF00BF1849086037
:103320001849C1F898014FF00000C1F8A8011648EB
:1033300000684FF2F00100EA0100134908600846F6
:10334000006804F00F0140EA01000F4908600846D8
:10335000006804F0F00140EA01100B4908604FF0EA
:1033600000000A4908604FF0010008600549C1F8F3
:10337000A80100BF00BF05B010BD0000DC9300082D
:10338000A4812142008021420C080140A0812142F9
:103390007FB505460E461446484903C9CDE90201EA
:1033A000009501969DE80F0000F0E0F900BF0120B4
:1033B000434908604FF000004249C1F89801C1F844
:1033C000A801414800684FF2F00100EA01003E49BF
:1033D00008600846006840F00C0008600846006875
:1033E00040F4007008604FF00000384908604FF06A
:1033F000010008603349C1F8A80100BF00BF00BF49
:103400002F4908602F49C1F898014FF00000C1F81A
:10341000A8012D4800684FF2F00100EA01002A4996
:10342000086008460068C4F3032140EA0100264909
:103430000860084600684FF0F00101EA242140EAE4
:103440000110214908604FF00000204908604FF04A
:10345000010008601B49C1F8A80100BF00BF18495E
:1034600008601849C1F898014FF00000C1F8A801A0
:10347000154800684FF2F00100EA010012490860A7
:103480000846006804F00F0140EA01000E49086098
:103490000846006804F0F00140EA01100A4908609B
:1034A0004FF00000094908604FF00100086005492D
:1034B000C1F8A80100BF00BF7FBD0000E493000871
:1034C000A4812142008021420C080140A0812142B8
:1034D0007FB5089C9DE80F0000F048F9DDE9020186
:1034E00000FB01F600BF0120464908604FF00000D4
:1034F0004549C1F89801C1F8A801444800684FF255
:10350000F00100EA0100414908600846006840F007
:103510000C0008600846006840F4007008604FF036
:1035200000003B4908604FF0010008603649C1F8CF
:10353000A80100BF4FF0000560E000BF00BF012000
:10354000304908603049C1F898014FF00000C1F8D7
:10355000A8012E4800684FF2F00100EA01002B4953
:10356000086008460068C4F3032140EA01002749C7
:103570000860084600684FF0F00101EA242140EAA3
:103580000110224908604FF00000214908604FF007
:10359000010008601C49C1F8A80100BF00BF19491B
:1035A00008601949C1F898014FF00000C1F8A8015E
:1035B000164800684FF2F00100EA01001349086064
:1035C0000846006804F00F0140EA01000F49086056
:1035D0000846006804F0F00140EA01100B49086059
:1035E0004FF000000A4908604FF0010008600649EA
:1035F000C1F8A80100BF00BF05F10105B5429CD389
:103600007FBD0000A4812142008021420C080140BE
:10361000A08121420FB581B0BDF81D00009001A826
:103620000FC8FFF755FF05B000BD00000FB418B577
:10363000144621E013480399006B0838814204DDE9
:10364000002003900498103004900E480499406BB9
:103650001038814202DD002004900390BDF825005F
:103660000090BDF81D302278DDE9030102F020FD55
:10367000039808300390641C20780028DAD118BC25
:103680005DF814FB640000200349496B4160024966
:10369000096B0160704700006400002008B501213B
:1036A0000C20FEF7DFFD10208DF8030003208DF8BD
:1036B000020040F60F70ADF8000069461548FDF7AE
:1036C000FDFE14480C3000684FF2F001084011492B
:1036D0000C31086008460068086008460068086009
:1036E0004FF4F860ADF8000069460B48FDF7E6FEC0
:1036F00000200A4908604FF001000949C1F8A401FF
:10370000084908604FF000000749086001F1040112
:10371000086008BD00080140000C0140A081214262
:1037200000802142A88121429881214200B587B0C2
:10373000FDF7B2FDFFF7B2FF00F02CFA05A8FDF788
:1037400099FF03A8FDF7A4FF0748D0F80E100091D9
:10375000418AADF80410007D8DF8060003A80FC85B
:10376000FFF758FF07B000BD9C0100200FB5FE48D1
:1037700090F8380010F0010F03D00098203000902E
:1037800002E001982030019000BF0120F749086055
:103790004FF00000F649C1F89801C1F8A801F548BA
:1037A00000684FF2F00100EA0100F24908600846A3
:1037B000006840F00A0008600846006840F40070A5
:1037C00008604FF00000EC4908604FF0010008600D
:1037D000E749C1F8A80100BF00BFE4490860E44917
:1037E000C1F898014FF00000C1F8A801E148006855
:1037F0004FF2F00100EA0100DE4908600846006867
:103800000099C1F3072101F00F0140EA0100D949F5
:103810000860084600680099C1F3072101F0F00133
:1038200040EA0110D34908604FF00000D249086017
:103830004FF001000860CE49C1F8A80100BF00BFE9
:10384000CA490860CA49C1F898014FF00000C1F8A0
:10385000A801C84800684FF2F00100EA0100C5491C
:10386000086008460068009901F00F0140EA010075
:10387000C049086008460068009901F0F00140EA7C
:103880000110BC4908604FF00000BB4908604FF0D0
:1038900001000860B649C1F8A80100BF00BFB349E4
:1038A0000860B349C1F898014FF00000C1F8A801C1
:1038B000B04800684FF2F00100EA0100AD4908602D
:1038C000029900980844A0F10100C0F3072000F01D
:1038D0000F00A849096840EA0100A649086002995A
:1038E00000980844A0F10100C0F3072000F0F000A8
:1038F000A049096841EA00109E4908604FF00000A5
:103900009D4908604FF0010008609949C1F8A8017D
:1039100000BF00BF954908609549C1F898014FF074
:103920000000C1F8A801934800684FF2F00100EAD6
:10393000010090490860029900980844A0F1010034
:1039400000F00F008B49096840EA010089490860CE
:10395000029900980844A0F1010000F0F0008549A8
:10396000096841EA0010834908604FF0000082496D
:1039700008604FF0010008607D49C1F8A80100BF50
:1039800000BF7A4908604FF000007949C1F89801FA
:10399000C1F8A801774800684FF2F00100EA010081
:1039A000744908600846006840F00B00086008464B
:1039B000006840F4007008604FF000006E49086035
:1039C0004FF0010008606A49C1F8A80100BF00BFBC
:1039D000664908606649C1F898014FF00000C1F8D7
:1039E000A801644800684FF2F00100EA0100614953
:1039F0000860084600680199C1F3072101F00F0132
:103A000040EA01005B490860084600680199C1F37B
:103A1000072101F0F00140EA0110564908604FF01B
:103A20000000554908604FF0010008605049C1F896
:103A3000A80100BF00BF4D4908604D49C1F8980179
:103A40004FF00000C1F8A8014A4800684FF2F001A9
:103A500000EA01004749086008460068019901F042
:103A60000F0140EA010043490860084600680199D7
:103A700001F0F00140EA01103E4908604FF00000FB
:103A80003D4908604FF0010008603949C1F8A801BC
:103A900000BF00BF354908603549C1F898014FF0B3
:103AA0000000C1F8A801334800684FF2F00100EAB5
:103AB000010030490860039901980844A0F1010011
:103AC000C0F3072000F00F002A49096840EA01000E
:103AD00028490860039901980844A0F10100C0F347
:103AE000072000F0F0002349096841EA001021494D
:103AF00008604FF00000204908604FF001000860A6
:103B00001B49C1F8A80100BF00BF18490860184947
:103B1000C1F898014FF00000C1F8A80115480068ED
:103B20004FF2F00100EA0100124908600399019880
:103B30000844A0F1010000F00F000E49096840EAB6
:103B400001000C490860039901980844A0F10100A4
:103B500000F0F0000749096841EA001005490860D3
:103B60004FF00000044909E064000020A4812142D4
:103B7000008021420C080140A081214208604FF0E2
:103B8000010008600249C1F8A80100BF0FBD000094
:103B90000080214210B50020FE49086000BF00BF30
:103BA0004FF0010008604FF4FA7003F0A7FE00BF69
:103BB0000120F94908604FF00000F849C1F8980168
:103BC000C1F8A801F64800684FF2F00100EA0100D0
:103BD000F34908600846006840F0010008600846A4
:103BE000006840F4807008604FF00000ED49086004
:103BF0004FF001000860E949C1F8A80100BF4FF08B
:103C0000780003F07BFE00BF0120E34908604FF01D
:103C10000000E249C1F89801C1F8A801E048006835
:103C20004FF2F00100EA0100DD4908600846006833
:103C300040F0010008600846006840F43060086009
:103C40004FF00000D74908604FF001000860D349E9
:103C5000C1F8A80100BF00BFCF490860CF49C1F833
:103C600098014FF00000C1F8A801CD4800684FF25C
:103C7000F00100EA0100CA4908600846006840F007
:103C8000050008600846006808604FF00000C5495C
:103C900008604FF001000860C049C1F8A80100BFEA
:103CA00000BFBD490860BD49C1F898014FF0000050
:103CB000C1F8A801BA4800684FF2F00100EA01001B
:103CC000B74908600846006840F00A0008600846E6
:103CD000006840F4407008604FF00000B14908608F
:103CE0004FF001000860AD49C1F8A80100BF00BF56
:103CF000A9490860A949C1F898014FF00000C1F82E
:103D0000A801A74800684FF2F00100EA0100A449A9
:103D100008600846006840F00A000860084600682D
:103D200040F4407008604FF000009E4908604FF07A
:103D3000010008609949C1F8A80100BF00BF964979
:103D400008604FF000009549C1F89801C1F8A8013A
:103D5000934800684FF2F00100EA010090490860C2
:103D60000846006840F0020008600846006840F419
:103D7000306008604FF000008A4908604FF0010091
:103D800008608649C1F8A80100BF00BF82490860E9
:103D90008249C1F898014FF00000C1F8A80180489D
:103DA00000684FF2F00100EA01007D490860084612
:103DB000006840F0050008600846006808604FF0A1
:103DC0000000784908604FF0010008607349C1F8AD
:103DD000A80100BF00BF704908607049C1F8980190
:103DE0004FF00000C1F8A8016D4800684FF2F001E3
:103DF00000EA01006A4908600846006840F00A00CD
:103E000008600846006840F4407008604FF0000009
:103E1000644908604FF0010008606049C1F8A801DA
:103E200000BF00BF5C4908605C49C1F898014FF0D1
:103E30000000C1F8A8015A4800684FF2F00100EAFA
:103E40000100574908600846006840F00A00086011
:103E50000846006840F4407008604FF00000514987
:103E600008604FF0010008604C49C1F8A80100BF8C
:103E700000BF494908604FF000004849C1F8980167
:103E8000C1F8A801464800684FF2F00100EA0100BD
:103E9000434908600846006840F00300086008468F
:103EA000006840F4306008604FF000003D49086051
:103EB0004FF0010008603949C1F8A80100BF00BFF8
:103EC000354908603549C1F898014FF00000C1F844
:103ED000A801334800684FF2F00100EA01003049C0
:103EE00008600846006840F0050008600846006861
:103EF00008604FF000002B4908604FF00100086097
:103F00002649C1F8A80100BF00BF23490860234922
:103F1000C1F898014FF00000C1F8A80120480068DE
:103F20004FF2F00100EA01001D49086008460068F0
:103F300040F00A0008600846006840F440700860DD
:103F40004FF00000174908604FF001000860134966
:103F5000C1F8A80100BF00BF0F4908600F49C1F8B0
:103F600098014FF00000C1F8A8010D4800684FF219
:103F7000F00100EA01000A4908600846006840F0C4
:103F80000A0008600846006840F4407008604FF07E
:103F9000000009E09C812142A4812142008021424D
:103FA0000C080140A0812142FE4908604FF0010049
:103FB0000860FD49C1F8A80100BF00BFFB490860C7
:103FC000F949C1F898014FF00000C1F8A801F8487C
:103FD00000684FF2F00100EA0100F5490860084668
:103FE000006840F0050008600846006808604FF06F
:103FF0000000EC4908604FF001000860EA49C1F890
:10400000A80100BF00BFE9490860E749C1F898016D
:104010004FF00000C1F8A801E54800684FF2F00138
:1040200000EA0100E24908600846006840F00A0022
:1040300008600846006840F4407008604FF00000D7
:10404000D84908604FF001000860D749C1F8A801BD
:1040500000BF00BFD5490860D349C1F898014FF0AF
:104060000000C1F8A801D24800684FF2F00100EA50
:104070000100CF4908600846006840F00A00086067
:104080000846006840F4407008604FF00000C549E1
:1040900008604FF001000860C349C1F8A80100BFE3
:1040A00000BFC24908604FF00000BF49C1F8980145
:1040B000C1F8A801BE4800684FF2F00100EA010013
:1040C000BB4908600846006840F0040008600846E4
:1040D000006840F4306008604FF00000B1490860AB
:1040E0004FF001000860B049C1F8A80100BF00BF4F
:1040F000AE490860AC49C1F898014FF00000C1F822
:10410000A801AB4800684FF2F00100EA0100A8499D
:1041100008600846006840F007000860084600682C
:1041200008604FF000009F4908604FF001000860F0
:104130009D49C1F8A80100BF00BF9C4908604FF02D
:1041400000009949C1F89801C1F8A8019848006891
:104150004FF2F00100EA0100954908600846006846
:1041600008600846006840F4406008604FF00000B6
:104170008C4908604FF0010008608B49C1F8A80124
:1041800000BF00BF894908608749C1F898014FF016
:104190000000C1F8A801864800684FF2F00100EA6B
:1041A0000100834908600846006840F00800086084
:1041B0000846006840F4007008604FF0000079493C
:1041C00008604FF0010008607749C1F8A80100BFFE
:1041D00000BF764908607449C1F898014FF00000AB
:1041E000C1F8A801724800684FF2F00100EA01002E
:1041F0006F4908600846006840F0080008600846FB
:10420000006808604FF00000664908604FF0010048
:1042100008606549C1F8A80100BF00BF6349086094
:104220006149C1F898014FF00000C1F8A801604849
:1042300000684FF2F00100EA01005D49086008469D
:10424000006840F0040008600846006840F4006020
:1042500008604FF00000534908604FF0010008600B
:104260005149C1F8A80100BF00BF504908604FF094
:1042700000004D49C1F89801C1F8A8014C480068F8
:104280004FF2F00100EA0100494908600846006861
:1042900040F0010008600846006840F44060086093
:1042A0004FF000003F4908604FF0010008603E49B0
:1042B000C1F8A80100BF00BF3C4908603A49C1F8F5
:1042C00098014FF00000C1F8A801394800684FF28A
:1042D000F00100EA010036490860084600680860FD
:1042E0000846006840F4406008604FF000002D4927
:1042F00008604FF0010008602B49C1F8A80100BF19
:1043000000BF2A4908604FF000002749C1F8980112
:10431000C1F8A801264800684FF2F00100EA010048
:10432000234908600846006840F00200086008461B
:10433000006840F4406008604FF0000019490860D0
:104340004FF0010008601849C1F8A80100BF00BF84
:10435000164908601449C1F898014FF00000C1F8EF
:10436000A801134800684FF2F00100EA010010496B
:1043700008600846006840F00C00086008460068C5
:1043800008604FF00000074908604FF00100086026
:104390000549C1F8A80100BF00BF044908600249EF
:1043A00008E00000A081214200802142A481214236
:1043B0000C080140C1F898014FF00000C1F8A801B5
:1043C000FE4800684FF2F00100EA0100FB49086076
:1043D0000846006808600846006808604FF0000062
:1043E000F74908604FF001000860F649C1F8A801DC
:1043F00000BF00BFF44908604FF00000F149C1F868
:104400009801C1F8A801ED4800684FF2F00100EAF8
:104410000100EA4908600846006840F003000860AF
:104420000846006840F4406008604FF00000E4492E
:1044300008604FF001000860E249C1F8A80100BF20
:1044400000BFE1490860DF49C1F898014FF0000062
:10445000C1F8A801D94800684FF2F00100EA010054
:10446000D64908600846006840F00C00086008461D
:10447000006840F4006008604FF00000D049086018
:104480004FF001000860CF49C1F8A80100BF00BF8C
:10449000CD490860CB49C1F898014FF00000C1F840
:1044A000A801C64800684FF2F00100EA0100C349C4
:1044B00008600846006840F00A0008600846006886
:1044C00040F4007008604FF00000BD4908604FF0F4
:1044D00001000860BB49C1F8A80100BF00BFBA498C
:1044E00008604FF00000B749C1F89801C1F8A80171
:1044F000B24800684FF2F00100EA0100AF490860DD
:104500000846006840F0040008600846006840F46F
:10451000406008604FF00000A94908604FF00100BA
:104520000860A849C1F8A80100BF00BFA6490860FB
:10453000A449C1F898014FF00000C1F8A8019F48B4
:1045400000684FF2F00100EA01009C49086008464B
:10455000006840F00A0008600846006840F4006007
:1045600008604FF00000964908604FF001000860B5
:104570009449C1F8A80100BF00BF93490860914960
:10458000C1F898014FF00000C1F8A8018B480068FD
:104590004FF2F00100EA010088490860084600680F
:1045A00040F00E0008600846006840F46060086053
:1045B0004FF00000824908604FF001000860814917
:1045C000C1F8A80100BF00BF7F4908604FF000009C
:1045D0007C49C1F89801C1F8A801784800684FF2F9
:1045E000F00100EA0100754908600846006840F0E3
:1045F000050008600846006840F4406008604FF01D
:1046000000006F4908604FF0010008606D49C1F873
:10461000A80100BF00BF6C4908606A49C1F8980151
:104620004FF00000C1F8A801644800684FF2F001A3
:1046300000EA0100614908600846006840F00C008B
:1046400008600846006808604FF000005C49086098
:104650004FF0010008605B49C1F8A80100BF00BF2E
:10466000594908604FF000005649C1F89801C1F857
:10467000A801524800684FF2F00100EA01004F49DA
:1046800008600846006808600846006840F46060FA
:1046900008604FF000004A4908604FF001000860D0
:1046A0004849C1F8A80100BF00BF47490860454913
:1046B000C1F898014FF00000C1F8A8013F48006818
:1046C0004FF2F00100EA01003C490860084600682A
:1046D00040F0050008600846006808604FF00000E0
:1046E000374908604FF0010008603649C1F8A80159
:1046F00000BF00BF344908603249C1F898014FF04B
:104700000000C1F8A8012D4800684FF2F00100EA4E
:1047100001002A4908600846006840F00A00086065
:104720000846006840F4807008604FF0000024499B
:1047300008604FF0010008602249C1F8A80100BFDD
:1047400000BF214908601F49C1F898014FF00000DF
:10475000C1F8A801194800684FF2F00100EA010011
:10476000164908600846006840F00C0008600846DA
:10477000006808604FF00000114908604FF0010028
:1047800008601049C1F8A80100BF00BF0E490860C9
:104790000C49C1F898014FF00000C1F8A801074882
:1047A00000684FF2F00100EA010004490860084681
:1047B000006840F00E000860084607E00C08014061
:1047C000A081214200802142A4812142006808602A
:1047D0004FF00000FE4908604FF001000860FD49FD
:1047E000C1F8A80100BF00BFFB490860F949C1F842
:1047F00098014FF00000C1F8A801F84800684FF296
:10480000F00100EA0100F54908600846006840F040
:104810000A0008600846006840F4407008604FF0E5
:104820000000EB4908604FF001000860E949C1F859
:10483000A80100BF00BFE8490860E649C1F8980137
:104840004FF00000C1F8A801E44800684FF2F00101
:1048500000EA0100E14908600846006840F00400F1
:1048600008600846006840F4407008604FF000009F
:10487000D74908604FF001000860D649C1F8A80187
:1048800000BF00BFD4490860D249C1F898014FF079
:104890000000C1F8A801D14800684FF2F00100EA19
:1048A0000100CE4908600846006840F00D0008602D
:1048B0000846006840F4007008604FF00000C449EA
:1048C00008604FF001000860C249C1F8A80100BFAC
:1048D00000BFC1490860BF49C1F898014FF000000E
:1048E000C1F8A801BD4800684FF2F00100EA0100DC
:1048F000BA4908600846006840F00F0008600846A2
:10490000006840F4007008604FF00000B049086093
:104910004FF001000860AF49C1F8A80100BF00BF17
:10492000AD490860AB49C1F898014FF00000C1F8EB
:10493000A801AA4800684FF2F00100EA0100A74967
:1049400008600846006840F00D00086008460068EE
:1049500040F4007008604FF000009D4908604FF07F
:10496000010008609B49C1F8A80100BF00BF9A4937
:1049700008609849C1F898014FF00000C1F8A801FB
:10498000964800684FF2F00100EA01009349086080
:104990000846006840F00A0008600846006840F4D5
:1049A000007008604FF00000894908604FF0010076
:1049B00008608849C1F8A80100BF00BF86490860A7
:1049C0008449C1F898014FF00000C1F8A80183485C
:1049D00000684FF2F00100EA0100804908600846D3
:1049E000006840F00F0008600846006840F400705E
:1049F00008604FF00000764908604FF00100086041
:104A00007449C1F8A80100BF00BF7349086071492B
:104A1000C1F898014FF00000C1F8A8016F48006884
:104A20004FF2F00100EA01006C4908600846006896
:104A300040F00C0008600846006840F440700860D0
:104A40004FF00000624908604FF0010008606149C2
:104A5000C1F8A80100BF00BF5F4908605D49C1F807
:104A600098014FF00000C1F8A8015C4800684FF2BF
:104A7000F00100EA01005949086008460068086032
:104A80000846006808604FF00000514908604FF088
:104A9000010008604F49C1F8A80100BF00BF4E499E
:104AA00008604C49C1F898014FF00000C1F8A80116
:104AB0004A4800684FF2F00100EA010047490860E7
:104AC0000846006840F00100086008460068086079
:104AD0004FF000003E4908604FF0010008603D497A
:104AE000C1F8A80100BF00BF3B4908603949C1F8BF
:104AF00098014FF00000C1F8A801384800684FF253
:104B0000F00100EA0100354908600846006840F0FD
:104B1000020008600846006808604FF000002C4959
:104B200008604FF0010008602A49C1F8A80100BFE1
:104B300000BF294908602749C1F898014FF00000DB
:104B4000C1F8A801254800684FF2F00100EA010011
:104B5000224908600846006808600846006840F47A
:104B6000807008604FF00000194908604FF00100A4
:104B700008601849C1F8A80100BF00BF16490860C5
:104B80004FF000001349C1F89801C1F8A80113487B
:104B900000684FF2F00100EA010010490860084681
:104BA000006840F0010008600846006840F460605A
:104BB00008604FF00000064908604FF001000860EF
:104BC0000449C1F8A80100BF00BF0349086007E01D
:104BD000A081214200802142A48121420C08014091
:104BE000FE49C1F898014FF00000C1F8A801FC4847
:104BF00000684FF2F00100EA0100F9490860084638
:104C0000006840F0040008600846006808604FF043
:104C10000000F44908604FF001000860EF49C1F856
:104C2000A80100BF00BFF0490860EC49C1F8980135
:104C30004FF00000C1F8A801E94800684FF2F00108
:104C400000EA0100E64908600846006840F00B00F1
:104C500008600846006840F4807008604FF000006B
:104C6000E04908604FF001000860DC49C1F8A80184
:104C700000BF00BFDC490860D849C1F898014FF077
:104C80000000C1F8A801D64800684FF2F00100EA20
:104C90000100D34908600846006840F00D00086034
:104CA0000846006808604FF00000CE4908604FF0E9
:104CB00001000860C949C1F8A80100BF00BFCA4986
:104CC0000860C649C1F898014FF00000C1F8A8017A
:104CD000C34800684FF2F00100EA0100C0490860D3
:104CE0000846006840F00E0008600846006808604A
:104CF0004FF00000BB4908604FF001000860B74961
:104D0000C1F8A80100BF00BFB7490860B349C1F8A6
:104D100098014FF00000C1F8A801B14800684FF2B7
:104D2000F00100EA0100AE4908600846006840F062
:104D30000D0008600846006840F4007008604FF0FD
:104D40000000A84908604FF001000860A349C1F8BD
:104D5000A80100BF00BFA4490860A049C1F898019C
:104D60004FF00000C1F8A8019D4800684FF2F00123
:104D700000EA01009A4908600846006840F009000E
:104D800008600846006840F4007008604FF00000BA
:104D9000944908604FF0010008609049C1F8A801EB
:104DA00000BF00BF904908608C49C1F898014FF0DE
:104DB0000000C1F8A8018A4800684FF2F00100EA3B
:104DC0000100874908600846006840F00400086058
:104DD0000846006840F4007008604FF00000814908
:104DE00008604FF0010008607C49C1F8A80100BFCD
:104DF00000BF7D4908607949C1F898014FF0000073
:104E0000C1F8A801764800684FF2F00100EA0100FD
:104E1000734908600846006840F0090008600846C9
:104E2000006840F4007008604FF000006D490860B1
:104E30004FF0010008606949C1F8A80100BF00BF38
:104E4000694908606549C1F898014FF00000C1F850
:104E5000A801634800684FF2F00100EA01006049D0
:104E600008600846006840F00800086008460068CE
:104E700040F4007008604FF000005A4908604FF09D
:104E8000010008605549C1F8A80100BF00BF56499C
:104E900008605249C1F898014FF00000C1F8A8011C
:104EA0004F4800684FF2F00100EA01004C490860E9
:104EB0000846006840F0060008600846006840F4B4
:104EC000007008604FF00000464908604FF0010094
:104ED00008604249C1F8A80100BF00BF424908600C
:104EE0003E49C1F898014FF00000C1F8A8013C48C4
:104EF00000684FF2F00100EA0100394908600846F5
:104F0000006840F0010008600846006840F4407006
:104F100008604FF00000334908604FF0010008605E
:104F20002E49C1F8A80100BF00BF2F4908602B49D6
:104F3000C1F898014FF00000C1F8A80128480068A6
:104F40004FF2F00100EA01002549086008460068B8
:104F500040F00B0008600846006840F440700860AC
:104F60004FF000001F4908604FF0010008601B4926
:104F7000C1F8A80100BF00BF1B4908601749C1F86C
:104F800098014FF00000C1F8A801154800684FF2E1
:104F9000F00100EA01001249086008460068086054
:104FA0000846006808604FF000000E4908604FF0A6
:104FB000010008600949C1F8A80100BF00BF0A4903
:104FC00008600649C1F898014FF00000C1F8A80137
:104FD000034800684FF2F00108E000000080214221
:104FE0000C080140A0812142A481214200EA010075
:104FF0007E49086008460068086008460068086046
:105000004FF000007A4908604FF0010008607949CC
:10501000C1F8A80100BF00BF774908607549C1F811
:1050200098014FF00000C1F8A801704800684FF2E5
:10503000F00100EA01006D4908600846006840F090
:10504000030008600846006808604FF000006849E7
:1050500008604FF0010008606649C1F8A80100BF70
:1050600000BF654908606349C1F898014FF000002E
:10507000C1F8A8015D4800684FF2F00100EA0100A4
:105080005A4908600846006840F002000860084677
:10509000006840F4807008604FF0000054490860D8
:1050A0004FF0010008605349C1F8A80100BF00BFDC
:1050B000514908604FF000004E49C1F89801C1F80D
:1050C000A8014A4800684FF2F00100EA0100474990
:1050D00008600846006840F00A000860084600685A
:1050E00040F4407008604FF00000414908604FF004
:1050F000010008603F49C1F8A80100BF00BF3E4958
:1051000008603C49C1F898014FF00000C1F8A801BF
:10511000364800684FF2F00100EA010033490860A8
:105120000846006840F0050008600846006808600E
:105130004FF000002E4908604FF0010008602D4933
:10514000C1F8A80100BF00BF2B4908604FF0000064
:105150002849C1F89801C1F8A801244800684FF215
:10516000F00100EA0100214908600846006840F0AB
:10517000090008600846006840F4007008604FF0BD
:1051800000001B4908604FF0010008601949C1F890
:10519000A80100BF00BF184908604FF00000154982
:1051A000C1F89801C1F8A801104800684FF2F00159
:1051B00000EA01000D4908600846006840F00C0054
:1051C00008600846006840F4007008604FF0000076
:1051D000074908604FF0010008600649C1F8A801BE
:1051E00000BF4FF0000000F009F810BD0C080140AE
:1051F000A081214200802142A4812142FE4981F800
:10520000380038B101287DD002287CD0032840F036
:105210004287F9E300BF0121F84A11604FF0000115
:10522000F74AC2F89811C2F8A811F64909684FF276
:10523000F00201EA0201F34A11601146096841F0E7
:10524000060111601146096841F4407111604FF088
:105250000001ED4A11604FF001011160E84AC2F807
:10526000A81100BF00BFE54A1160E54AC2F89811D5
:105270004FF00001C2F8A811E24909684FF2F002AC
:1052800001EA0201DF4A11601146096841F0080194
:1052900011601146096841F4406111604FF000014E
:1052A000D94A11604FF001011160D54AC2F8A81126
:1052B00000BF00BFD14A11604FF00001D04AC2F8D0
:1052C0009811C2F8A811CF4909684FF2F00201EA1B
:1052D0000201CC4A11601146096841F00A011160CF
:1052E0001146096841F4007111604FF00001C64A8F
:1052F00011604FF001011160C14AC2F8A81100BF4E
:1053000000BF01E050E123E3BC4A1160BC4AC2F88F
:1053100098114FF00001C2F8A811BA4909684FF27C
:10532000F00201EA0201B74A1160114609681160F2
:105330001146096811604FF00001B34A11604FF047
:1053400001011160AE4AC2F8A81100BF00BFAB4A0C
:105350001160AB4AC2F898114FF00001C2F8A811D1
:10536000A84909684FF2F00201EA0201A54A11605A
:105370001146096811601146096811604FF000017B
:10538000A14A11604FF0010111609D4AC2F8A811B5
:1053900000BF00BF994A1160994AC2F898114FF0B6
:1053A0000001C2F8A811974909684FF2F00201EA1A
:1053B0000201944A1160114609681160114609689A
:1053C00011604FF00001904A11604FF0010111602F
:1053D0008B4AC2F8A81100BF00BF884A1160884AF2
:1053E000C2F898114FF00001C2F8A8118549096868
:1053F0004FF2F00201EA0201824A11601146096887
:1054000011601146096841F4006111604FF000011C
:105410007D4A11604FF001011160794AC2F8A8116C
:1054200000BF00BF754A11604FF00001744AC2F816
:105430009811C2F8A811734909684FF2F00201EA05
:105440000201704A11601146096841F00B011160B8
:105450001146096841F4007111604FF000016A4A79
:1054600011604FF001011160654AC2F8A81100BF38
:1054700000BF624A1160624AC2F898114FF0000101
:10548000C2F8A8115F4909684FF2F00201EA02016F
:105490005C4A116011460968116011460968116083
:1054A0004FF00001584A11604FF001011160544A59
:1054B000C2F8A81100BF00BF504A1160504AC2F89C
:1054C00098114FF00001C2F8A8114E4909684FF237
:1054D000F00201EA02014B4A11601146096841F0ED
:1054E000020111601146096841F4407111604FF0EA
:1054F0000001454A11604FF001011160404AC2F8B5
:10550000A81100BF00BF3D4A11603D4AC2F8981182
:105510004FF00001C2F8A8113A4909684FF2F002B1
:1055200001EA0201374A116011460968116011460B
:10553000096811604FF00001334A11604FF001011A
:1055400011602F4AC2F8A81100BF00BF2B4A11609A
:105550002B4AC2F898114FF00001C2F8A81129494E
:1055600009684FF2F00201EA0201264A1160114671
:10557000096841F0020111601146096841F4306187
:1055800011604FF00001204A11604FF001011160DD
:105590001B4AC2F8A81100BF4FF0800216494A63A7
:1055A0001146154A1163A6E300BF0121134A116099
:1055B0004FF00001124AC2F89811C2F8A81111491F
:1055C00009684FF2F00201EA02010E4A1160114629
:1055D000096841F0060111601146096841F4407103
:1055E00011604FF00001084A11604FF00101116095
:1055F000034AC2F8A81109E064000020A4812142F6
:10560000008021420C080140A081214200BF00BF60
:10561000FE4A1160FE4AC2F898114FF00001C2F82C
:10562000A811FC4909684FF2F00201EA0201F94AA7
:1056300011601146096841F00801116011460968BE
:1056400041F4206111604FF00001F34A11604FF006
:1056500001011160EE4AC2F8A81100BF00BFEB4A79
:1056600011604FF00001EA4AC2F89811C2F8A8117F
:10567000E84909684FF2F00201EA0201E54A1160C7
:105680001146096841F00A0111601146096841F4A8
:10569000007111604FF00001DF4A11604FF001010D
:1056A0001160DB4AC2F8A81100BF00BFD74A1160E1
:1056B000D74AC2F898114FF00001C2F8A811D54995
:1056C00009684FF2F00201EA0201D24A1160114664
:1056D000096811601146096811604FF00001CE4A57
:1056E00011604FF001011160C94AC2F8A81100BF52
:1056F00000BFC64A1160C64AC2F898114FF00001B7
:10570000C2F8A811C34909684FF2F00201EA020188
:10571000C04A11601146096841F003011160114649
:10572000096811604FF00001BB4A11604FF00101A0
:105730001160B74AC2F8A81100BF00BFB34A116098
:10574000B34AC2F898114FF00001C2F8A811B1494C
:1057500009684FF2F00201EA0201AE4A11601146F7
:10576000096811601146096811604FF00001AA4AEA
:1057700011604FF001011160A54AC2F8A81100BFE5
:1057800000BFA24A1160A24AC2F898114FF000016E
:10579000C2F8A8119F4909684FF2F00201EA02011C
:1057A0009C4A11601146096841F0020111601146DE
:1057B000096841F4006111604FF00001964A1160E0
:1057C0004FF001011160924AC2F8A81100BF00BF5A
:1057D0008E4A11604FF000018D4AC2F89811C2F84C
:1057E000A8118C4909684FF2F00201EA0201894AC6
:1057F00011601146096841F00B01116011460968FA
:1058000041F4007111604FF00001834A11604FF0C4
:10581000010111607E4AC2F8A81100BF00BF7B4A97
:1058200011607B4AC2F898114FF00001C2F8A8112C
:10583000784909684FF2F00201EA0201754A1160E5
:105840001146096811601146096811604FF00001A6
:10585000714A11604FF0010111606D4AC2F8A81140
:1058600000BF00BF694A1160694AC2F898114FF041
:105870000001C2F8A811674909684FF2F00201EA75
:105880000201644A11601146096841F00201116089
:105890001146096811604FF000015F4A11604FF036
:1058A000010111605A4AC2F8A81100BF00BF574A4F
:1058B0001160574AC2F898114FF00001C2F8A811C0
:1058C000544909684FF2F00201EA0201514A11609D
:1058D0001146096811601146096811604FF0000116
:1058E0004D4A11604FF001011160494AC2F8A811F8
:1058F00000BF00BF454A1160454AC2F898114FF0F9
:105900000001C2F8A811434909684FF2F00201EA08
:105910000201404A11601146096841F0010111601D
:105920001146096841F4006111604FF000013A4AE4
:1059300011604FF001011160354AC2F8A81100BF93
:105940004FF0800235494A631146344A1163A3E39C
:1059500000BF01212D4A11604FF000012C4AC2F80E
:105960009811C2F8A8112B4909684FF2F00201EA18
:105970000201284A11601146096841F006011160D0
:105980001146096841F4407111604FF00001224A4C
:1059900011604FF0010111601D4AC2F8A81100BF4B
:1059A00000BF1A4A11601A4AC2F898114FF000015C
:1059B000C2F8A811174909684FF2F00201EA020182
:1059C000144A11601146096841F00801116011463E
:1059D000096811604FF000010F4A11604FF001019A
:1059E00011600B4AC2F8A81100BF00BF074A11603E
:1059F0004FF00001064AC2F89811C2F8A8110549F3
:105A000009684FF2F0020BE076E10000A481214228
:105A1000008021420C080140A08121426400002046
:105A200001EA0201FE4A11601146096841F00A01CB
:105A300011601146096841F4007111604FF00001D6
:105A4000F84A11604FF001011160F74AC2F8A8113D
:105A500000BF00BFF54A1160F34AC2F898114FF039
:105A60000001C2F8A811EE4909684FF2F00201EAFC
:105A70000201EB4A1160114609681160114609687C
:105A800011604FF00001E74A11604FF00101116011
:105A9000E54AC2F8A81100BF00BFE44A1160E24A1B
:105AA000C2F898114FF00001C2F8A811DC4909684A
:105AB0004FF2F00201EA0201D94A11601146096869
:105AC00041F0020111601146096811604FF00001B8
:105AD000D44A11604FF001011160D34AC2F8A811F5
